{
  "contractName": "LennyToken",
  "abi": [
    {
      "inputs": [
        {
          "internalType": "string",
          "name": "_name",
          "type": "string"
        },
        {
          "internalType": "string",
          "name": "_symbol",
          "type": "string"
        }
      ],
      "stateMutability": "nonpayable",
      "type": "constructor"
    },
    {
      "anonymous": false,
      "inputs": [
        {
          "indexed": true,
          "internalType": "address",
          "name": "owner",
          "type": "address"
        },
        {
          "indexed": true,
          "internalType": "address",
          "name": "approved",
          "type": "address"
        },
        {
          "indexed": true,
          "internalType": "uint256",
          "name": "tokenId",
          "type": "uint256"
        }
      ],
      "name": "Approval",
      "type": "event"
    },
    {
      "anonymous": false,
      "inputs": [
        {
          "indexed": true,
          "internalType": "address",
          "name": "owner",
          "type": "address"
        },
        {
          "indexed": true,
          "internalType": "address",
          "name": "operator",
          "type": "address"
        },
        {
          "indexed": false,
          "internalType": "bool",
          "name": "approved",
          "type": "bool"
        }
      ],
      "name": "ApprovalForAll",
      "type": "event"
    },
    {
      "anonymous": false,
      "inputs": [
        {
          "indexed": true,
          "internalType": "address",
          "name": "owner",
          "type": "address"
        },
        {
          "indexed": false,
          "internalType": "uint256",
          "name": "id",
          "type": "uint256"
        },
        {
          "indexed": false,
          "internalType": "uint256",
          "name": "dna",
          "type": "uint256"
        }
      ],
      "name": "NewLenny",
      "type": "event"
    },
    {
      "anonymous": false,
      "inputs": [
        {
          "indexed": true,
          "internalType": "address",
          "name": "previousOwner",
          "type": "address"
        },
        {
          "indexed": true,
          "internalType": "address",
          "name": "newOwner",
          "type": "address"
        }
      ],
      "name": "OwnershipTransferred",
      "type": "event"
    },
    {
      "anonymous": false,
      "inputs": [
        {
          "indexed": true,
          "internalType": "address",
          "name": "from",
          "type": "address"
        },
        {
          "indexed": true,
          "internalType": "address",
          "name": "to",
          "type": "address"
        },
        {
          "indexed": true,
          "internalType": "uint256",
          "name": "tokenId",
          "type": "uint256"
        }
      ],
      "name": "Transfer",
      "type": "event"
    },
    {
      "inputs": [
        {
          "internalType": "address",
          "name": "to",
          "type": "address"
        },
        {
          "internalType": "uint256",
          "name": "tokenId",
          "type": "uint256"
        }
      ],
      "name": "approve",
      "outputs": [],
      "stateMutability": "nonpayable",
      "type": "function"
    },
    {
      "inputs": [
        {
          "internalType": "address",
          "name": "owner",
          "type": "address"
        }
      ],
      "name": "balanceOf",
      "outputs": [
        {
          "internalType": "uint256",
          "name": "",
          "type": "uint256"
        }
      ],
      "stateMutability": "view",
      "type": "function",
      "constant": true
    },
    {
      "inputs": [
        {
          "internalType": "uint256",
          "name": "tokenId",
          "type": "uint256"
        }
      ],
      "name": "getApproved",
      "outputs": [
        {
          "internalType": "address",
          "name": "",
          "type": "address"
        }
      ],
      "stateMutability": "view",
      "type": "function",
      "constant": true
    },
    {
      "inputs": [
        {
          "internalType": "address",
          "name": "owner",
          "type": "address"
        },
        {
          "internalType": "address",
          "name": "operator",
          "type": "address"
        }
      ],
      "name": "isApprovedForAll",
      "outputs": [
        {
          "internalType": "bool",
          "name": "",
          "type": "bool"
        }
      ],
      "stateMutability": "view",
      "type": "function",
      "constant": true
    },
    {
      "inputs": [
        {
          "internalType": "uint256",
          "name": "",
          "type": "uint256"
        }
      ],
      "name": "lennys",
      "outputs": [
        {
          "internalType": "string",
          "name": "name",
          "type": "string"
        },
        {
          "internalType": "uint256",
          "name": "id",
          "type": "uint256"
        },
        {
          "internalType": "uint256",
          "name": "dna",
          "type": "uint256"
        },
        {
          "internalType": "uint8",
          "name": "level",
          "type": "uint8"
        },
        {
          "internalType": "uint8",
          "name": "rarity",
          "type": "uint8"
        }
      ],
      "stateMutability": "view",
      "type": "function",
      "constant": true
    },
    {
      "inputs": [],
      "name": "name",
      "outputs": [
        {
          "internalType": "string",
          "name": "",
          "type": "string"
        }
      ],
      "stateMutability": "view",
      "type": "function",
      "constant": true
    },
    {
      "inputs": [],
      "name": "owner",
      "outputs": [
        {
          "internalType": "address",
          "name": "",
          "type": "address"
        }
      ],
      "stateMutability": "view",
      "type": "function",
      "constant": true
    },
    {
      "inputs": [
        {
          "internalType": "uint256",
          "name": "tokenId",
          "type": "uint256"
        }
      ],
      "name": "ownerOf",
      "outputs": [
        {
          "internalType": "address",
          "name": "",
          "type": "address"
        }
      ],
      "stateMutability": "view",
      "type": "function",
      "constant": true
    },
    {
      "inputs": [],
      "name": "renounceOwnership",
      "outputs": [],
      "stateMutability": "nonpayable",
      "type": "function"
    },
    {
      "inputs": [
        {
          "internalType": "address",
          "name": "from",
          "type": "address"
        },
        {
          "internalType": "address",
          "name": "to",
          "type": "address"
        },
        {
          "internalType": "uint256",
          "name": "tokenId",
          "type": "uint256"
        }
      ],
      "name": "safeTransferFrom",
      "outputs": [],
      "stateMutability": "nonpayable",
      "type": "function"
    },
    {
      "inputs": [
        {
          "internalType": "address",
          "name": "from",
          "type": "address"
        },
        {
          "internalType": "address",
          "name": "to",
          "type": "address"
        },
        {
          "internalType": "uint256",
          "name": "tokenId",
          "type": "uint256"
        },
        {
          "internalType": "bytes",
          "name": "_data",
          "type": "bytes"
        }
      ],
      "name": "safeTransferFrom",
      "outputs": [],
      "stateMutability": "nonpayable",
      "type": "function"
    },
    {
      "inputs": [
        {
          "internalType": "address",
          "name": "operator",
          "type": "address"
        },
        {
          "internalType": "bool",
          "name": "approved",
          "type": "bool"
        }
      ],
      "name": "setApprovalForAll",
      "outputs": [],
      "stateMutability": "nonpayable",
      "type": "function"
    },
    {
      "inputs": [
        {
          "internalType": "bytes4",
          "name": "interfaceId",
          "type": "bytes4"
        }
      ],
      "name": "supportsInterface",
      "outputs": [
        {
          "internalType": "bool",
          "name": "",
          "type": "bool"
        }
      ],
      "stateMutability": "view",
      "type": "function",
      "constant": true
    },
    {
      "inputs": [],
      "name": "symbol",
      "outputs": [
        {
          "internalType": "string",
          "name": "",
          "type": "string"
        }
      ],
      "stateMutability": "view",
      "type": "function",
      "constant": true
    },
    {
      "inputs": [
        {
          "internalType": "uint256",
          "name": "tokenId",
          "type": "uint256"
        }
      ],
      "name": "tokenURI",
      "outputs": [
        {
          "internalType": "string",
          "name": "",
          "type": "string"
        }
      ],
      "stateMutability": "view",
      "type": "function",
      "constant": true
    },
    {
      "inputs": [
        {
          "internalType": "address",
          "name": "from",
          "type": "address"
        },
        {
          "internalType": "address",
          "name": "to",
          "type": "address"
        },
        {
          "internalType": "uint256",
          "name": "tokenId",
          "type": "uint256"
        }
      ],
      "name": "transferFrom",
      "outputs": [],
      "stateMutability": "nonpayable",
      "type": "function"
    },
    {
      "inputs": [
        {
          "internalType": "address",
          "name": "newOwner",
          "type": "address"
        }
      ],
      "name": "transferOwnership",
      "outputs": [],
      "stateMutability": "nonpayable",
      "type": "function"
    },
    {
      "inputs": [
        {
          "internalType": "uint256",
          "name": "_fee",
          "type": "uint256"
        }
      ],
      "name": "updateFee",
      "outputs": [],
      "stateMutability": "nonpayable",
      "type": "function"
    },
    {
      "inputs": [],
      "name": "withdraw",
      "outputs": [],
      "stateMutability": "payable",
      "type": "function",
      "payable": true
    },
    {
      "inputs": [
        {
          "internalType": "string",
          "name": "_name",
          "type": "string"
        }
      ],
      "name": "createRandomLenny",
      "outputs": [],
      "stateMutability": "payable",
      "type": "function",
      "payable": true
    },
    {
      "inputs": [],
      "name": "getLennys",
      "outputs": [
        {
          "components": [
            {
              "internalType": "string",
              "name": "name",
              "type": "string"
            },
            {
              "internalType": "uint256",
              "name": "id",
              "type": "uint256"
            },
            {
              "internalType": "uint256",
              "name": "dna",
              "type": "uint256"
            },
            {
              "internalType": "uint8",
              "name": "level",
              "type": "uint8"
            },
            {
              "internalType": "uint8",
              "name": "rarity",
              "type": "uint8"
            }
          ],
          "internalType": "struct LennyToken.Lenny[]",
          "name": "",
          "type": "tuple[]"
        }
      ],
      "stateMutability": "view",
      "type": "function",
      "constant": true
    },
    {
      "inputs": [
        {
          "internalType": "address",
          "name": "_owner",
          "type": "address"
        }
      ],
      "name": "getOwnerLennys",
      "outputs": [
        {
          "components": [
            {
              "internalType": "string",
              "name": "name",
              "type": "string"
            },
            {
              "internalType": "uint256",
              "name": "id",
              "type": "uint256"
            },
            {
              "internalType": "uint256",
              "name": "dna",
              "type": "uint256"
            },
            {
              "internalType": "uint8",
              "name": "level",
              "type": "uint8"
            },
            {
              "internalType": "uint8",
              "name": "rarity",
              "type": "uint8"
            }
          ],
          "internalType": "struct LennyToken.Lenny[]",
          "name": "",
          "type": "tuple[]"
        }
      ],
      "stateMutability": "view",
      "type": "function",
      "constant": true
    }
  ],
  "bytecode": "0x6080604052670de0b6b3a76400006008553480156200001d57600080fd5b506040516200240d3803806200240d83398101604081905262000040916200023b565b81518290829062000059906000906020850190620000ea565b5080516200006f906001906020840190620000ea565b5050506200008c620000866200009460201b60201c565b62000098565b5050620002f5565b3390565b600680546001600160a01b038381166001600160a01b0319831681179093556040519116919082907f8be0079c531659141344cd1fd0a4f28419497f9722a3daafe3b4186f6b6457e090600090a35050565b828054620000f890620002a2565b90600052602060002090601f0160209004810192826200011c576000855562000167565b82601f106200013757805160ff191683800117855562000167565b8280016001018555821562000167579182015b82811115620001675782518255916020019190600101906200014a565b506200017592915062000179565b5090565b5b808211156200017557600081556001016200017a565b600082601f830112620001a1578081fd5b81516001600160401b0380821115620001be57620001be620002df565b6040516020601f8401601f1916820181018381118382101715620001e657620001e6620002df565b6040528382528584018101871015620001fd578485fd5b8492505b8383101562000220578583018101518284018201529182019162000201565b838311156200023157848185840101525b5095945050505050565b600080604083850312156200024e578182fd5b82516001600160401b038082111562000265578384fd5b620002738683870162000190565b9350602085015191508082111562000289578283fd5b50620002988582860162000190565b9150509250929050565b600281046001821680620002b757607f821691505b60208210811415620002d957634e487b7160e01b600052602260045260246000fd5b50919050565b634e487b7160e01b600052604160045260246000fd5b61210880620003056000396000f3fe6080604052600436106101355760003560e01c806388c1d5f9116100ab578063a22cb4651161006f578063a22cb4651461032a578063b663fe1e1461034a578063b88d4fde1461037b578063c87b56dd1461039b578063e985e9c5146103bb578063f2fde38b146103db57610135565b806388c1d5f9146102ad5780638da5cb5b146102c05780639012c4a8146102d557806395d89b41146102f557806398cd0a051461030a57610135565b80633ccfd60b116100fd5780633ccfd60b1461020157806342842e0e146102095780636352211e1461022957806366d2bbd91461024957806370a082311461026b578063715018a61461029857610135565b806301ffc9a71461013a57806306fdde0314610170578063081812fc14610192578063095ea7b3146101bf57806323b872dd146101e1575b600080fd5b34801561014657600080fd5b5061015a61015536600461189f565b6103fb565b6040516101679190611a9c565b60405180910390f35b34801561017c57600080fd5b50610185610443565b6040516101679190611aa7565b34801561019e57600080fd5b506101b26101ad36600461191d565b6104d5565b60405161016791906119b0565b3480156101cb57600080fd5b506101df6101da366004611876565b610521565b005b3480156101ed57600080fd5b506101df6101fc366004611788565b6105b9565b6101df6105f1565b34801561021557600080fd5b506101df610224366004611788565b610676565b34801561023557600080fd5b506101b261024436600461191d565b610691565b34801561025557600080fd5b5061025e6106c6565b6040516101679190611a01565b34801561027757600080fd5b5061028b61028636600461173c565b6107ec565b6040516101679190611f8a565b3480156102a457600080fd5b506101df610830565b6101df6102bb3660046118d7565b61087b565b3480156102cc57600080fd5b506101b26108a9565b3480156102e157600080fd5b506101df6102f036600461191d565b6108b8565b34801561030157600080fd5b506101856108fc565b34801561031657600080fd5b5061025e61032536600461173c565b61090b565b34801561033657600080fd5b506101df61034536600461183c565b610afd565b34801561035657600080fd5b5061036a61036536600461191d565b610bcb565b604051610167959493929190611aba565b34801561038757600080fd5b506101df6103963660046117c3565b610ca1565b3480156103a757600080fd5b506101856103b636600461191d565b610ce0565b3480156103c757600080fd5b5061015a6103d6366004611756565b610d63565b3480156103e757600080fd5b506101df6103f636600461173c565b610d91565b60006001600160e01b031982166380ac58cd60e01b148061042c57506001600160e01b03198216635b5e139f60e01b145b8061043b575061043b82610dff565b90505b919050565b60606000805461045290612010565b80601f016020809104026020016040519081016040528092919081815260200182805461047e90612010565b80156104cb5780601f106104a0576101008083540402835291602001916104cb565b820191906000526020600020905b8154815290600101906020018083116104ae57829003601f168201915b5050505050905090565b60006104e082610e18565b6105055760405162461bcd60e51b81526004016104fc90611ddf565b60405180910390fd5b506000908152600460205260409020546001600160a01b031690565b600061052c82610691565b9050806001600160a01b0316836001600160a01b031614156105605760405162461bcd60e51b81526004016104fc90611ef8565b806001600160a01b0316610572610e35565b6001600160a01b0316148061058e575061058e816103d6610e35565b6105aa5760405162461bcd60e51b81526004016104fc90611cba565b6105b48383610e39565b505050565b6105ca6105c4610e35565b82610ea7565b6105e65760405162461bcd60e51b81526004016104fc90611f39565b6105b4838383610f2c565b6105f9610e35565b6001600160a01b031661060a6108a9565b6001600160a01b0316146106305760405162461bcd60e51b81526004016104fc90611e2b565b600061063a6108a9565b6040519091506001600160a01b038216904780156108fc02916000818181858888f19350505050158015610672573d6000803e3d6000fd5b5050565b6105b483838360405180602001604052806000815250610ca1565b6000818152600260205260408120546001600160a01b03168061043b5760405162461bcd60e51b81526004016104fc90611d61565b60606009805480602002602001604051908101604052809291908181526020016000905b828210156107e357838290600052602060002090600402016040518060a001604052908160008201805461071d90612010565b80601f016020809104026020016040519081016040528092919081815260200182805461074990612010565b80156107965780601f1061076b57610100808354040283529160200191610796565b820191906000526020600020905b81548152906001019060200180831161077957829003601f168201915b50505091835250506001828101546020808401919091526002840154604084015260039093015460ff808216606085015261010090910416608090920191909152918352920191016106ea565b50505050905090565b60006001600160a01b0382166108145760405162461bcd60e51b81526004016104fc90611d17565b506001600160a01b031660009081526003602052604090205490565b610838610e35565b6001600160a01b03166108496108a9565b6001600160a01b03161461086f5760405162461bcd60e51b81526004016104fc90611e2b565b6108796000611059565b565b60085434101561089d5760405162461bcd60e51b81526004016104fc90611c3e565b6108a6816110ab565b50565b6006546001600160a01b031690565b6108c0610e35565b6001600160a01b03166108d16108a9565b6001600160a01b0316146108f75760405162461bcd60e51b81526004016104fc90611e2b565b600855565b60606001805461045290612010565b60606000610918836107ec565b67ffffffffffffffff81111561093e57634e487b7160e01b600052604160045260246000fd5b60405190808252806020026020018201604052801561097757816020015b6109646115e7565b81526020019060019003908161095c5790505b5090506000805b600954811015610af457846001600160a01b031661099b82610691565b6001600160a01b03161415610ae257600981815481106109cb57634e487b7160e01b600052603260045260246000fd5b90600052602060002090600402016040518060a00160405290816000820180546109f490612010565b80601f0160208091040260200160405190810160405280929190818152602001828054610a2090612010565b8015610a6d5780601f10610a4257610100808354040283529160200191610a6d565b820191906000526020600020905b815481529060010190602001808311610a5057829003601f168201915b5050509183525050600182015460208201526002820154604082015260039091015460ff8082166060840152610100909104166080909101528351849084908110610ac857634e487b7160e01b600052603260045260246000fd5b60200260200101819052508180610ade9061204b565b9250505b80610aec8161204b565b91505061097e565b50909392505050565b610b05610e35565b6001600160a01b0316826001600160a01b03161415610b365760405162461bcd60e51b81526004016104fc90611c07565b8060056000610b43610e35565b6001600160a01b03908116825260208083019390935260409182016000908120918716808252919093529120805460ff191692151592909217909155610b87610e35565b6001600160a01b03167f17307eab39ab6107e8899845ad3d59bd9653f200f220920489ca2b5937696c3183604051610bbf9190611a9c565b60405180910390a35050565b60098181548110610bdb57600080fd5b9060005260206000209060040201600091509050806000018054610bfe90612010565b80601f0160208091040260200160405190810160405280929190818152602001828054610c2a90612010565b8015610c775780601f10610c4c57610100808354040283529160200191610c77565b820191906000526020600020905b815481529060010190602001808311610c5a57829003601f168201915b50505050600183015460028401546003909401549293909290915060ff8082169161010090041685565b610cb2610cac610e35565b83610ea7565b610cce5760405162461bcd60e51b81526004016104fc90611f39565b610cda84848484611200565b50505050565b6060610ceb82610e18565b610d075760405162461bcd60e51b81526004016104fc90611ea9565b6000610d11611233565b90506000815111610d315760405180602001604052806000815250610d5c565b80610d3b84611245565b604051602001610d4c929190611961565b6040516020818303038152906040525b9392505050565b6001600160a01b03918216600090815260056020908152604080832093909416825291909152205460ff1690565b610d99610e35565b6001600160a01b0316610daa6108a9565b6001600160a01b031614610dd05760405162461bcd60e51b81526004016104fc90611e2b565b6001600160a01b038116610df65760405162461bcd60e51b81526004016104fc90611b46565b6108a681611059565b6001600160e01b031981166301ffc9a760e01b14919050565b6000908152600260205260409020546001600160a01b0316151590565b3390565b600081815260046020526040902080546001600160a01b0319166001600160a01b0384169081179091558190610e6e82610691565b6001600160a01b03167f8c5be1e5ebec7d5bd14f71427d1e84f3dd0314c0f7b2291e5b200ac8c7c3b92560405160405180910390a45050565b6000610eb282610e18565b610ece5760405162461bcd60e51b81526004016104fc90611c6e565b6000610ed983610691565b9050806001600160a01b0316846001600160a01b03161480610f145750836001600160a01b0316610f09846104d5565b6001600160a01b0316145b80610f245750610f248185610d63565b949350505050565b826001600160a01b0316610f3f82610691565b6001600160a01b031614610f655760405162461bcd60e51b81526004016104fc90611e60565b6001600160a01b038216610f8b5760405162461bcd60e51b81526004016104fc90611bc3565b610f968383836105b4565b610fa1600082610e39565b6001600160a01b0383166000908152600360205260408120805460019290610fca908490611fcd565b90915550506001600160a01b0382166000908152600360205260408120805460019290610ff8908490611fa1565b909155505060008181526002602052604080822080546001600160a01b0319166001600160a01b0386811691821790925591518493918716917fddf252ad1be2c89b69c2b068fc378daa952ba7f163c4a11628f55a4df523b3ef91a4505050565b600680546001600160a01b038381166001600160a01b0319831681179093556040519116919082907f8be0079c531659141344cd1fd0a4f28419497f9722a3daafe3b4186f6b6457e090600090a35050565b60006110b76064611360565b905060006110cb662386f26fc10000611360565b6040805160a08101825285815260075460208083019190915291810183905260016060820181905260ff86166080830152600980549182018155600052815180519495509193849360049092027f6e1540171b6c0c960b71a7020d9f60077f6af931a8bbf590da0223dacf75c7af019261114992849291019061161c565b50602082015160018201556040820151600282015560608201516003909101805460809093015160ff9081166101000261ff00199190931660ff1990941693909317929092161790556007546111a090339061139a565b336001600160a01b03167f467844121ca496700f899fdb9ce62f2d86706b25d25cf288d5b3cdd1c1cbab54600754846040516111dd929190611f93565b60405180910390a2600780549060006111f58361204b565b919050555050505050565b61120b848484610f2c565b611217848484846113b4565b610cda5760405162461bcd60e51b81526004016104fc90611af4565b60408051602081019091526000815290565b60608161126a57506040805180820190915260018152600360fc1b602082015261043e565b8160005b8115611294578061127e8161204b565b915061128d9050600a83611fb9565b915061126e565b60008167ffffffffffffffff8111156112bd57634e487b7160e01b600052604160045260246000fd5b6040519080825280601f01601f1916602001820160405280156112e7576020820181803683370190505b5090505b8415610f24576112fc600183611fcd565b9150611309600a86612066565b611314906030611fa1565b60f81b81838151811061133757634e487b7160e01b600052603260045260246000fd5b60200101906001600160f81b031916908160001a905350611359600a86611fb9565b94506112eb565b6000804233604051602001611376929190611990565b60408051601f1981840301815291905280516020909101209050610d5c8382612066565b6106728282604051806020016040528060008152506114cf565b60006113c8846001600160a01b0316611502565b156114c457836001600160a01b031663150b7a026113e4610e35565b8786866040518563ffffffff1660e01b815260040161140694939291906119c4565b602060405180830381600087803b15801561142057600080fd5b505af1925050508015611450575060408051601f3d908101601f1916820190925261144d918101906118bb565b60015b6114aa573d80801561147e576040519150601f19603f3d011682016040523d82523d6000602084013e611483565b606091505b5080516114a25760405162461bcd60e51b81526004016104fc90611af4565b805181602001fd5b6001600160e01b031916630a85bd0160e11b149050610f24565b506001949350505050565b6114d98383611508565b6114e660008484846113b4565b6105b45760405162461bcd60e51b81526004016104fc90611af4565b3b151590565b6001600160a01b03821661152e5760405162461bcd60e51b81526004016104fc90611daa565b61153781610e18565b156115545760405162461bcd60e51b81526004016104fc90611b8c565b611560600083836105b4565b6001600160a01b0382166000908152600360205260408120805460019290611589908490611fa1565b909155505060008181526002602052604080822080546001600160a01b0319166001600160a01b03861690811790915590518392907fddf252ad1be2c89b69c2b068fc378daa952ba7f163c4a11628f55a4df523b3ef908290a45050565b6040518060a00160405280606081526020016000815260200160008152602001600060ff168152602001600060ff1681525090565b82805461162890612010565b90600052602060002090601f01602090048101928261164a5760008555611690565b82601f1061166357805160ff1916838001178555611690565b82800160010185558215611690579182015b82811115611690578251825591602001919060010190611675565b5061169c9291506116a0565b5090565b5b8082111561169c57600081556001016116a1565b600067ffffffffffffffff808411156116d0576116d06120a6565b604051601f8501601f1916810160200182811182821017156116f4576116f46120a6565b60405284815291508183850186101561170c57600080fd5b8484602083013760006020868301015250509392505050565b80356001600160a01b038116811461043e57600080fd5b60006020828403121561174d578081fd5b610d5c82611725565b60008060408385031215611768578081fd5b61177183611725565b915061177f60208401611725565b90509250929050565b60008060006060848603121561179c578081fd5b6117a584611725565b92506117b360208501611725565b9150604084013590509250925092565b600080600080608085870312156117d8578081fd5b6117e185611725565b93506117ef60208601611725565b925060408501359150606085013567ffffffffffffffff811115611811578182fd5b8501601f81018713611821578182fd5b611830878235602084016116b5565b91505092959194509250565b6000806040838503121561184e578182fd5b61185783611725565b91506020830135801515811461186b578182fd5b809150509250929050565b60008060408385031215611888578182fd5b61189183611725565b946020939093013593505050565b6000602082840312156118b0578081fd5b8135610d5c816120bc565b6000602082840312156118cc578081fd5b8151610d5c816120bc565b6000602082840312156118e8578081fd5b813567ffffffffffffffff8111156118fe578182fd5b8201601f8101841361190e578182fd5b610f24848235602084016116b5565b60006020828403121561192e578081fd5b5035919050565b6000815180845261194d816020860160208601611fe4565b601f01601f19169290920160200192915050565b60008351611973818460208801611fe4565b835190830190611987818360208801611fe4565b01949350505050565b91825260601b6bffffffffffffffffffffffff1916602082015260340190565b6001600160a01b0391909116815260200190565b6001600160a01b03858116825284166020820152604081018390526080606082018190526000906119f790830184611935565b9695505050505050565b60208082528251828201819052600091906040908185019080840286018301878501865b83811015611a8e57603f19898403018552815160a08151818652611a4b82870182611935565b838b0151878c0152898401518a88015260608085015160ff9081169189019190915260809485015116939096019290925250509386019390860190600101611a25565b509098975050505050505050565b901515815260200190565b600060208252610d5c6020830184611935565b600060a08252611acd60a0830188611935565b602083019690965250604081019390935260ff918216606084015216608090910152919050565b60208082526032908201527f4552433732313a207472616e7366657220746f206e6f6e20455243373231526560408201527131b2b4bb32b91034b6b83632b6b2b73a32b960711b606082015260800190565b60208082526026908201527f4f776e61626c653a206e6577206f776e657220697320746865207a65726f206160408201526564647265737360d01b606082015260800190565b6020808252601c908201527f4552433732313a20746f6b656e20616c7265616479206d696e74656400000000604082015260600190565b60208082526024908201527f4552433732313a207472616e7366657220746f20746865207a65726f206164646040820152637265737360e01b606082015260800190565b60208082526019908201527f4552433732313a20617070726f766520746f2063616c6c657200000000000000604082015260600190565b602080825260169082015275151a1948199959481a5cc81b9bdd0818dbdc9c9958dd60521b604082015260600190565b6020808252602c908201527f4552433732313a206f70657261746f7220717565727920666f72206e6f6e657860408201526b34b9ba32b73a103a37b5b2b760a11b606082015260800190565b60208082526038908201527f4552433732313a20617070726f76652063616c6c6572206973206e6f74206f7760408201527f6e6572206e6f7220617070726f76656420666f7220616c6c0000000000000000606082015260800190565b6020808252602a908201527f4552433732313a2062616c616e636520717565727920666f7220746865207a65604082015269726f206164647265737360b01b606082015260800190565b60208082526029908201527f4552433732313a206f776e657220717565727920666f72206e6f6e657869737460408201526832b73a103a37b5b2b760b91b606082015260800190565b6020808252818101527f4552433732313a206d696e7420746f20746865207a65726f2061646472657373604082015260600190565b6020808252602c908201527f4552433732313a20617070726f76656420717565727920666f72206e6f6e657860408201526b34b9ba32b73a103a37b5b2b760a11b606082015260800190565b6020808252818101527f4f776e61626c653a2063616c6c6572206973206e6f7420746865206f776e6572604082015260600190565b60208082526029908201527f4552433732313a207472616e73666572206f6620746f6b656e2074686174206960408201526839903737ba1037bbb760b91b606082015260800190565b6020808252602f908201527f4552433732314d657461646174613a2055524920717565727920666f72206e6f60408201526e3732bc34b9ba32b73a103a37b5b2b760891b606082015260800190565b60208082526021908201527f4552433732313a20617070726f76616c20746f2063757272656e74206f776e656040820152603960f91b606082015260800190565b60208082526031908201527f4552433732313a207472616e736665722063616c6c6572206973206e6f74206f6040820152701ddb995c881b9bdc88185c1c1c9bdd9959607a1b606082015260800190565b90815260200190565b918252602082015260400190565b60008219821115611fb457611fb461207a565b500190565b600082611fc857611fc8612090565b500490565b600082821015611fdf57611fdf61207a565b500390565b60005b83811015611fff578181015183820152602001611fe7565b83811115610cda5750506000910152565b60028104600182168061202457607f821691505b6020821081141561204557634e487b7160e01b600052602260045260246000fd5b50919050565b600060001982141561205f5761205f61207a565b5060010190565b60008261207557612075612090565b500690565b634e487b7160e01b600052601160045260246000fd5b634e487b7160e01b600052601260045260246000fd5b634e487b7160e01b600052604160045260246000fd5b6001600160e01b0319811681146108a657600080fdfea2646970667358221220b96ddfa702b0e1557ed36047ae54bc43046bb841586730e6f14ee5dd1309629764736f6c63430008000033",
  "immutableReferences": {},
  "source": "// SPDX-License-Identifier: MIT \n\npragma solidity ^0.8.0;\n\n//Importing smart contract \nimport \"@openzeppelin/contracts/token/ERC721/ERC721.sol\";\nimport \"@openzeppelin/contracts/access/Ownable.sol\";\n\n\n\ncontract LennyToken is ERC721, Ownable{\n    //Constructor to make the smart contract\n    constructor (string memory _name, string memory _symbol) ERC721(_name,_symbol){\n    }\n    //Minted counter\n    uint256 COUNTER;\n    \n    uint256 fee = 1 ether;\n    \n    //How to make a Lenny\n    struct Lenny {\n        string name;\n        uint256 id;\n        uint256 dna;\n        uint8 level;\n        uint8 rarity;\n    }\n    \n    //Array of lennys\n    Lenny[] public lennys;\n    \n    \n    event NewLenny(address indexed owner, uint256 id, uint256 dna);\n    \n    //\n    //Helpers\n    //\n    function _createRandomNum(uint256 _mod) internal view returns(uint256){\n        uint256 randomNum = uint256(keccak256(abi.encodePacked(block.timestamp, msg.sender)));\n        return randomNum % _mod;\n    }\n    \n    //Update the fee\n    function updateFee(uint256 _fee) external onlyOwner(){\n        fee = _fee;\n    }\n    \n    function withdraw() external payable onlyOwner() {\n        address payable _owner = payable(owner());\n        _owner.transfer(address(this).balance);\n    }\n    \n    //\n    //Mining Lennys\n    //\n    function _createLenny(string memory _name) internal{\n        uint8 randRarity = uint8(_createRandomNum(100));\n        uint256 ranDna = _createRandomNum(10**16);\n        Lenny memory newLenny = Lenny(_name, COUNTER, ranDna,1,randRarity);\n        lennys.push(newLenny);\n        _safeMint(msg.sender, COUNTER);\n        emit NewLenny(msg.sender, COUNTER, ranDna);\n        COUNTER++;\n    }\n    \n    function createRandomLenny(string memory _name) public payable {\n        require(msg.value >= fee, \"The fee is not correct\");\n        _createLenny(_name);\n    }\n    \n    //\n    //Getters\n    //\n    function getLennys() public view returns (Lenny[] memory){\n        return lennys;\n    }\n\n    function getOwnerLennys(address _owner) public view returns (Lenny[] memory){\n        Lenny[] memory result = new Lenny[](balanceOf(_owner));\n        uint256 counter = 0;\n        for (uint256 i = 0; i < lennys.length; i++) {\n            if (ownerOf(i) == _owner) {\n                result[counter] = lennys[i];\n                counter++;\n            }\n        }\n        return result;\n    }\n}",
  "sourcePath": "/Users/aimenhallou/LennymonNFT/contracts/LennyToken.sol",
  "compiler": {
    "name": "solc",
    "version": "0.8.0+commit.c7dfd78e.Emscripten.clang"
  },
  "schemaVersion": "3.2.3",
  "updatedAt": "2021-10-22T14:34:11.452Z",
  "networkType": "ethereum",
  "devdoc": {
    "kind": "dev",
    "methods": {
      "approve(address,uint256)": {
        "details": "See {IERC721-approve}."
      },
      "balanceOf(address)": {
        "details": "See {IERC721-balanceOf}."
      },
      "getApproved(uint256)": {
        "details": "See {IERC721-getApproved}."
      },
      "isApprovedForAll(address,address)": {
        "details": "See {IERC721-isApprovedForAll}."
      },
      "name()": {
        "details": "See {IERC721Metadata-name}."
      },
      "owner()": {
        "details": "Returns the address of the current owner."
      },
      "ownerOf(uint256)": {
        "details": "See {IERC721-ownerOf}."
      },
      "renounceOwnership()": {
        "details": "Leaves the contract without owner. It will not be possible to call `onlyOwner` functions anymore. Can only be called by the current owner. NOTE: Renouncing ownership will leave the contract without an owner, thereby removing any functionality that is only available to the owner."
      },
      "safeTransferFrom(address,address,uint256)": {
        "details": "See {IERC721-safeTransferFrom}."
      },
      "safeTransferFrom(address,address,uint256,bytes)": {
        "details": "See {IERC721-safeTransferFrom}."
      },
      "setApprovalForAll(address,bool)": {
        "details": "See {IERC721-setApprovalForAll}."
      },
      "supportsInterface(bytes4)": {
        "details": "See {IERC165-supportsInterface}."
      },
      "symbol()": {
        "details": "See {IERC721Metadata-symbol}."
      },
      "tokenURI(uint256)": {
        "details": "See {IERC721Metadata-tokenURI}."
      },
      "transferFrom(address,address,uint256)": {
        "details": "See {IERC721-transferFrom}."
      },
      "transferOwnership(address)": {
        "details": "Transfers ownership of the contract to a new account (`newOwner`). Can only be called by the current owner."
      }
    },
    "version": 1
  },
  "userdoc": {
    "kind": "user",
    "methods": {},
    "version": 1
  }
}